:100000000C945D000C9485000C9485000C94850084
:100010000C9485000C9485000C9485000C9485004C
:100020000C9485000C9485000C9485000C9485003C
:100030000C9485000C9485000C9485000C9485002C
:100040000C9492070C9485000C9460070C943A076A
:100050000C9485000C9485000C9485000C9485000C
:100060000C94DC070C94850000000000240027009D
:100070002A0000000000250028002B0004040404CE
:100080000404040402020202020203030303030342
:10009000010204081020408001020408102001021F
:1000A00004081020000000080002010000030407FB
:1000B0000000000000000000FB0811241FBECFEF6D
:1000C000D8E0DEBFCDBF11E0A0E0B1E0E4EBF6E1A7
:1000D00002C005900D92AC3BB107D9F723E0ACEB21
:1000E000B1E001C01D92A734B207E1F710E0CDE501
:1000F000D0E004C02197FE010E94520BCC35D107FD
:10010000C9F70E9437090C94580B0C94000008950D
:100110000895AF92BF92CF92DF92EF92FF920F932A
:100120001F93CF93DF936C017B018B01040F151F8D
:10013000EB015E01AE18BF08C017D10759F06991F5
:10014000D601ED91FC910190F081E02DC601099559
:10015000892B79F7C501DF91CF911F910F91FF9006
:10016000EF90DF90CF90BF90AF900895FC01538D3A
:10017000448D252F30E0842F90E0821B930B541781
:1001800010F0CF96089501970895FC01918D828D0E
:10019000981761F0A28DAE0FBF2FB11D5D968C91A7
:1001A000928D9F5F9F73928F90E008958FEF9FEFE6
:1001B0000895FC01918D828D981731F0828DE80FA2
:1001C000F11D858D90E008958FEF9FEF0895FC015C
:1001D000918D228D892F90E0805C9F4F821B910929
:1001E0008F73992708958FE892E00E94E70021E03D
:1001F000892B09F420E0822F089580E090E0892B7C
:1002000029F00E94F30081110C9400000895FC0174
:10021000A48DA80FB92FB11DA35ABF4F2C91848D67
:1002200090E001968F739927848FA689B7892C93C4
:10023000A089B1898C91837080648C93938D848D17
:10024000981306C00288F389E02D80818F7D80831A
:100250000895EF92FF920F931F93CF93DF93EC01DA
:1002600081E0888F9B8D8C8D98131AC0E889F9895D
:10027000808185FF15C09FB7F894EE89FF89608360
:10028000E889F98980818370806480839FBF81E0E1
:1002900090E0DF91CF911F910F91FF90EF90089523
:1002A000F62E0B8D10E00F5F1F4F0F731127E02EFE
:1002B0008C8D8E110CC00FB607FCFACFE889F98936
:1002C000808185FFF5CFCE010E940701F1CFEB8D34
:1002D000EC0FFD2FF11DE35AFF4FF0829FB7F8940A
:1002E0000B8FEA89FB8980818062CFCFCF93DF9328
:1002F000EC01888D8823B9F0AA89BB89E889F9893E
:100300008C9185FD03C0808186FD0DC00FB607FC72
:10031000F7CF8C9185FFF2CF808185FFEDCFCE01A5
:100320000E940701E9CFDF91CF91089590E0FC0191
:10033000EC55FF4F2491FC01E057FF4F3491FC0135
:10034000E458FF4FE491EE23C9F0222339F0233023
:1003500001F1A8F4213019F1223029F1F0E0EE0F7B
:10036000FF1FEE58FF4FA591B4918FB7F894EC9111
:10037000611126C030953E233C938FBF08952730EE
:10038000A9F02830C9F0243049F7809180008F7D92
:1003900003C0809180008F7780938000DFCF84B589
:1003A0008F7784BDDBCF84B58F7DFBCF8091B0008C
:1003B0008F778093B000D2CF8091B0008F7DF9CF3E
:1003C0003E2BDACF482F50E0FA01E057FF4F9491CF
:1003D000FA01E458FF4F2491222399F030E0220FD4
:1003E000331FF901E859FF4FA591B491F901EE5877
:1003F000FF4F259134912FB7F894EC91E92BEC93B2
:100400002FBF6115710519F460E00C9496016F3FE0
:10041000710511F461E0F9CFFA01EC55FF4FE49159
:10042000E33019F140F4E130B1F0E230C9F0603866
:10043000710584F7E9CFE73011F1E83041F1E4309C
:10044000B1F78091800080628093800070938B0070
:1004500060938A00089584B5806884BD67BD08955F
:1004600084B5806284BD68BD0895809180008068F5
:100470008093800070938900609388000895809134
:10048000B00080688093B0006093B30008958091BD
:10049000B00080628093B0006093B40008953FB7CD
:1004A000F8948091250290912602A0912702B091A4
:1004B000280226B5A89B05C02F3F19F00196A11D63
:1004C000B11D3FBFBA2FA92F982F8827BC01CD019E
:1004D000620F711D811D911D42E0660F771F881FFD
:1004E000991F4A95D1F708958F929F92AF92BF922C
:1004F000CF92DF92EF92FF924B015C010E944F027C
:100500006B017C010E944F026C197D098E099F09C5
:10051000683E734081059105A8F321E0821A910895
:10052000A108B10888EEC80E83E0D81EE11CF11CBA
:1005300081149104A104B10429F7FF90EF90DF909A
:10054000CF90BF90AF909F908F90089580912D0293
:1005500090912E02891B990B08952091DD01260FA1
:100560003327331F21323105ECF420916502FC0161
:1005700090E080E0243069F082E00895A091DD01F0
:100580002191AC0143545E4FA40FB52FB11D2C93A4
:100590000196861798F38091DD01680F6093DD0165
:1005A00080E0089581E008951092650281E08093D3
:1005B000640210923F0261E082E10E94960161E0D4
:1005C00083E10E949601E9EBF0E080818E7F8083D9
:1005D00080818D7F808388E48093B80085E4809358
:1005E000BC000895CF93DF9391E09093BC018823E2
:1005F000B9F0C091B800D091BA008091BC008A7B5C
:100600008093BC0060E082E10E94960160E083E19B
:100610000E9496010E94D402D093BA00C093B80001
:10062000DF91CF9108958F929F92AF92BF92CF9218
:10063000DF92EF92FF920F931F93CF93DF93D091AE
:100640008E02D13208F0D7C0182FC0918D020E94BF
:100650004F026B017C018091650281116BC082E0C9
:1006600080936502109364028FEF8093630210926F
:100670006202D0936102ADE6B2E0E1E4F2E080E034
:10068000D81391C01092400280914002CC0FC82B29
:10069000C093400280913F02813009F088C01092DF
:1006A0003F020E944F026B017C01809140028093C7
:1006B000BB008091670290916802A0916902B0919D
:1006C0006A02892B8A2B8B2BA1F00E944F0200918A
:1006D0006702109168022091690230916A026C19D8
:1006E0007D098E099F09061717072807390708F49F
:1006F00042C08091BC0083FDD8CF85EC8093BC00C4
:100700000E944F026B017C0180916502823009F4E6
:1007100050C0809163028F3F09F46FC080916302E3
:10072000803209F46CC080916302803309F469C09F
:1007300084E026C08091670290916802A0916902CE
:10074000B0916A02892B8A2B8B2B09F484CF0E94EB
:100750004F028090670290906802A0906902B0906A
:100760006A026C197D098E099F0986169706A806EC
:10077000B90608F070CF809166020E94F20285E00F
:1007800010926C0210928E0210926B02DF91CF9148
:100790001F910F91FF90EF90DF90CF90BF90AF909F
:1007A0009F908F9008959D9191938F5F69CF85EE73
:1007B000A5CF8091670290916802A0916902B091E3
:1007C0006A02892B8A2B8B2B09F49ECF0E944F0241
:1007D00000916702109168022091690230916A02CB
:1007E0006C197D098E099F09061717072807390715
:1007F00008F08ACFC0CF81E0C3CF80E0C1CF82E0D4
:10080000BFCF83E0BDCF0895E0912E0280912D02ED
:10081000E81730F4F0E0E050FE4F808190E008955A
:100820008FEF9FEF089590912E0280912D022FEF70
:100830003FEF981748F4E92FF0E0E050FE4F208199
:1008400030E09F5F90932E02C9010895CF92DF920E
:10085000EF92FF920F931F93CF93DF937C01CB0115
:100860008A0120916B02222389F0EB016B01C40EF7
:10087000D51ECC15DD0569F06991D701ED91FC918C
:100880000190F081E02DC7010995F3CF642F0E94FC
:10089000AD02C801DF91CF911F910F91FF90EF90B2
:1008A000DF90CF900895CF93DF931F92CDB7DEB73F
:1008B000698320916B022223F9F020918E0220326D
:1008C00058F021E030E0FC013383228390E080E0A7
:1008D0000F90DF91CF91089580916C02E82FF0E0A6
:1008E000E359FD4F998190838F5F80936C028093D1
:1008F0008E0281E090E0ECCF61E0CE0101960E9493
:10090000AD02F7CFCF93DF93EA0191E090936B02B2
:1009100080938D0210926C0210928E028CE293E012
:100920000E94530468818CE293E00E94530481E0AA
:100930000E94130391E0811190E0892FDF91CF9104
:10094000089590E080E00895FC0101900020E9F70F
:100950003197AF01481B590BBC018FE892E00C9412
:1009600089008F929F92AF92BF920F931F93CF9364
:10097000DF93CDB7DEB7A1970FB6F894DEBF0FBEF9
:10098000CDBF19A2423008F44AE08E010F5D1F4F1F
:10099000842E912CB12CA12CA50194010E94210B35
:1009A000E62FB901CA01EA30F4F4E05DD801EE9314
:1009B0008D01232B242B252B79F790E080E01097D5
:1009C00019F0CD010E94A404A1960FB6F894DEBFE1
:1009D0000FBECDBFDF91CF911F910F91BF90AF9010
:1009E0009F908F900895E95CE1CFCF92DF92EF92D4
:1009F000FF92CF93DF936B017C016DE28FE892E071
:100A00000E942901EC0166277727CB016C197D092B
:100A10008E099F094AE00E94B1048C0F9D1FDF914F
:100A2000CF91FF90EF90DF90CF900895CF93DF9319
:100A30000E94A404EC0184E291E00E94A4048C0FC3
:100A40009D1FDF91CF9108952F923F924F925F9219
:100A50006F927F928F929F92AF92BF92CF92DF92CE
:100A6000EF92FF920F931F93CF93DF93CDB7DEB733
:100A70002B970FB6F894DEBF0FBECDBFD82EC62E73
:100A8000F42E3D832C8318018FB7F89440902102F7
:100A90005090220260902302709024028FBF2D2D6F
:100AA000220F2B83042FE12C1B8611E050E05A8388
:100AB0004983C101B0E0A0E08E839F83A887B987F6
:100AC00010936B02D0928D0210926C0210928E02E3
:100AD0006C2D8CE293E00E94530481E00E9413038A
:100AE00010936B0210926C0210928E020E944F02C1
:100AF0004B015C018091650281116DC00A87013252
:100B000010F090E29A871093650210936402AFEFA1
:100B1000A0936302109262028A85815080936102E1
:100B20001093400280914002BB818B2B8093400246
:100B300080913F02813009F092C010923F020E94E2
:100B40004F024B015C01809140028093BB00809179
:100B5000670290916802A0916902B0916A02892BA4
:100B60008A2B8B2BA1F00E944F02209167023091BB
:100B700068024091690250916A02681979098A09EC
:100B80009B09261737074807590708F445C0809185
:100B9000BC0083FDD8CF25EC2093BC000E944F02FF
:100BA0004B015C0180916502813009F45CC0809149
:100BB00062024A85841718F4509162025A87A1E4B0
:100BC000B2E0E0E0F2E080E09A85891751F19D9172
:100BD00091938F5FF9CF8091670290916802A09105
:100BE0006902B0916A02892B8A2B8B2B09F482CF80
:100BF0000E944F0220916702309168024091690281
:100C000050916A02681979098A099B0926173707E2
:100C10004807590708F06ECF809166020E94F202E1
:100C20001A8610922E02AA85A0932D0290912D0271
:100C300080912E02981709F451C021143104A9F5AE
:100C40008CE293E00E941304EC81FD81BB85EB0FE5
:100C5000F11DB7FDFA958083BF5FBB87E7CF35EE07
:100C60003093BC009BCF8091670290916802A09165
:100C70006902B0916A02892B8A2B8B2B09F492CFDF
:100C80000E944F02209167023091680240916902F0
:100C900050916A02681979098A099B092617370752
:100CA0004807590708F07ECFB7CF2FB7F894809147
:100CB000210290912202A0912302B09124022FBF21
:100CC00084199509A609B7092E813F814885598560
:100CD00082179307A407B50708F4B2CFEF0C0F19DA
:100CE000EF1408F4EDCE2114310411F18FB7F8940C
:100CF00040912102509122026091230270912402BE
:100D00008FBF4419550966097709C101B0E0A0E019
:100D1000481759076A077B0758F03B85832F330F25
:100D2000990B49815A818417950714F45FEF5B870B
:100D30008B852B960FB6F894DEBF0FBECDBFDF912B
:100D4000CF911F910F91FF90EF90DF90CF90BF90C8
:100D5000AF909F908F907F906F905F904F903F905B
:100D60002F900895BF92CF92DF92EF92FF920F9350
:100D70001F93CF93DF9300D0CDB7DEB7F82EE62ECA
:100D8000C42EB22ED02E08EE13E09E012E5F3F4FF0
:100D900041E00E942405882399F18C2D8B19990B31
:100DA000AC014F5F5F4F81E090E002C0880F991F58
:100DB000BA94E2F70197042E01C0880F0A94EAF76B
:100DC0000D2D01C0000F4A95EAF7982F90952A81C2
:100DD00092238023892B8A838983AE014F5F5F4FE3
:100DE0006E2D8F2D0E9482040F900F90DF91CF9176
:100DF0001F910F91FF90EF90DF90CF90BF900895DB
:100E000080E0F2CF85ED8093BC00809167029091E5
:100E10006802A0916902B0916A020796A11DB11DF6
:100E200023E0B695A795979587952A95D1F72091B8
:100E3000BC0024FD03C01092650208954091670232
:100E4000509168026091690270916A02452B462BAD
:100E5000472B69F30097A105B10541F025E32A95D9
:100E6000F1F700000197A109B109E1CF8091660275
:100E70000C94F2021F920F920FB60F9211242F932F
:100E80003F934F935F936F937F938F939F93AF9312
:100E9000BF93EF93FF938FE892E00E940701FF91C9
:100EA000EF91BF91AF919F918F917F916F915F91E2
:100EB0004F913F912F910F900FBE0F901F9018955B
:100EC0001F920F920FB60F9211242F938F939F931F
:100ED000EF93FF93E0919F02F091A0028081E09157
:100EE000A502F091A60282FD1BC090818091A8020C
:100EF0008F5F8F732091A902821741F0E091A802C1
:100F0000F0E0E157FD4F958F8093A802FF91EF919C
:100F10009F918F912F910F900FBE0F901F9018955A
:100F20008081F4CF1F920F920FB60F9211242F934E
:100F30003F938F939F93AF93BF93809121029091A2
:100F40002202A0912302B09124023091200223E0DA
:100F5000230F2D3758F50196A11DB11D20932002B6
:100F60008093210290932202A0932302B093240243
:100F70008091250290912602A0912702B09128022B
:100F80000196A11DB11D8093250290932602A09386
:100F90002702B0932802BF91AF919F918F913F910B
:100FA0002F910F900FBE0F901F90189526E8230FDA
:100FB0000296A11DB11DD2CF1F920F920FB60F92B4
:100FC00011242F933F934F935F936F937F938F934E
:100FD0009F93AF93BF93EF93FF938091B900887F66
:100FE000803609F44AC0F0F5883209F4A7C018F534
:100FF000803109F49BC0B8F4882309F4F9C0883023
:1010000009F494C0FF91EF91BF91AF919F918F919F
:101010007F916F915F914F913F912F910F900FBEF4
:101020000F901F901895883109F488C0803251F7CD
:101030008093630214C0803409F49DC040F480336F
:10104000B9F38833F9F68093630285ECB0C080353C
:1010500009F485C0883509F496C0883499F60E9451
:101060000207D0CF883909F48CC038F5883729F0C9
:1010700050F4883611F0803729F683E080936502BA
:101080001092FF0157C0883809F47BC0803919F0ED
:10109000803809F0B7CF8091FF01803208F071C02D
:1010A000E091FF0181E08E0F8093FF018091BB00F2
:1010B000F0E0E152FE4F80833DC0803B39F0E0F428
:1010C000803A09F479C0883A09F09CCF84E0809393
:1010D00065021092DE011092DD01E0912B02F09189
:1010E0002C0209958091DD0181110FC081E0809370
:1010F000DD011092BD0109C0803C09F4A6CF883CF7
:1011000009F4A3CF883B09F07DCFE091DE0181E0B7
:101110008E0F8093DE01F0E0E354FE4F80818093D8
:10112000BB009091DE018091DD0129C080914002D9
:101130008093BB0085EC8093BC0064CF90916202E9
:1011400080916102981758F5E091620281E08E0F5C
:1011500080936202F0E0EF5BFD4F8081E9CFE09188
:10116000620281E08E0F809362028091BB00F0E00A
:10117000EF5BFD4F8083909162028091610298172E
:10118000C8F285E8D8CFE091620281E08E0F8093AB
:1011900062028091BB00F0E0EF5BFD4F80838091A5
:1011A000640281115CCF81E080933F0284EA8093E6
:1011B000BC001092650226CF85EC8093BC00109293
:1011C00065028091FF01803230F4E091FF01F0E090
:1011D000E152FE4F10826091FF0170E0E091290220
:1011E000F0912A028FED91E009951092FF010ACF4C
:1011F0001092630234CFEFE8F2E01382128288EE9D
:1012000093E0A0E0B0E084839583A683B78324E0D5
:1012100031E03183208325EC30E03587248724ECCE
:1012200030E03787268720EC30E0318B208B21ECB3
:1012300030E0338B228B22EC30E0358B248B26EC94
:1012400030E0378B268B118E128E138E148EECE2CB
:10125000F3E01382128284839583A683B78386E1A9
:1012600091E09183808388E6809338030895CF933B
:10127000DF9300D0CDB7DEB7789484B5826084BDAB
:1012800084B5816084BD85B5826085BD85B581608A
:1012900085BD80916E00816080936E001092810008
:1012A00080918100826080938100809181008160C3
:1012B0008093810080918000816080938000809184
:1012C000B10084608093B1008091B0008160809310
:1012D000B00080917A00846080937A0080917A00D7
:1012E000826080937A0080917A00816080937A0096
:1012F00080917A00806880937A001092C1001092E9
:101300002E0210922D0210926C0210928E020E94F8
:10131000D40287E890E090932C0280932B0288E817
:1013200090E090932A0280932902E0919F02F0912D
:10133000A00282E08083E0919B02F0919C021082E7
:10134000E0919D02F0919E028FEC80831092A702A3
:10135000E091A302F091A40286E08083E091A102D3
:10136000F091A202808180618083E091A102F091DE
:10137000A202808188608083E091A102F091A202A4
:10138000808180688083E091A102F091A202808137
:101390008F7D80838DE591E00E94160501E023E0BA
:1013A00042E06BE6809138030E94B20600E022E042
:1013B00044E06BE1809138030E94B20622E044E0F1
:1013C0006CE1809138030E94B206F090380308EE79
:1013D00013E09E012F5F3F4F41E06BE68F2D0E948F
:1013E000240589818F7B89838A83AE014E5F5F4F9D
:1013F0006BE68F2D0E9482049E012F5F3F4F41E0DC
:1014000065E7809138030E942405882339F089819B
:101410008E7790E095958795809339038091390375
:10142000843309F0D9C087E291E00E94160568EE86
:1014300073E080E090E00E94740285E791E00E94F2
:10144000160568EE73E080E090E00E94740280ED83
:10145000882E84E8982EA12CB12C9DE7E92EF12C42
:1014600020E0C22E20E0D22E08EE13E029E333E084
:101470004EE06BE3809138030E94240520913903EC
:1014800030913A0332272327322780913B039091F2
:101490003C0398278927982790933C0280933B022E
:1014A00080913D0390913E03982789279827909338
:1014B0003A02809339028091410390914203982728
:1014C00089279827909338028093370280914303AD
:1014D0009091440398278927982790933602809308
:1014E00035028091450390914603982789279827D4
:1014F0009093340280933302032E000C440B550B5F
:1015000028593D4B4F4F5F4FAAEFB0E00E94160B9A
:10151000A50194010E94F70ABA01A9014D5751098A
:101520006109710950933E0240933D02CA018358FC
:101530009F4F9093320280933102C701841B950B19
:101540009093300280932F0286E991E00E94A404D8
:101550006091310270913202072E000C880B990BBA
:1015600097FF3DC00E94F50486EA91E00E94A40422
:101570008BEA91E00E94A40460912F0270913002E6
:10158000072E000C880B990B97FF2DC00E94F504C5
:1015900084E291E00E94A4046091310270913202D1
:1015A00086E00E94E20160912F02709130028AE091
:1015B0000E94E20168EC70E080E090E00E9474021A
:1015C000C114D10409F450CF0E94F300882309F418
:1015D0004BCF0E94000048CF83E491E026CF4AE041
:1015E0000E94B104C1CF4AE00E94B104D1CF052EC0
:1015F00097FB1EF400940E940E0B57FD07D00E942B
:10160000210B07FC03D04EF40C940E0B5095409523
:10161000309521953F4F4F4F5F4F0895909580959E
:10162000709561957F4F8F4F9F4F08950E94430B98
:10163000A59F900DB49F900DA49F800D911D112426
:101640000895A1E21A2EAA1BBB1BFD010DC0AA1F03
:10165000BB1FEE1FFF1FA217B307E407F50720F01B
:10166000A21BB30BE40BF50B661F771F881F991F96
:101670001A9469F760957095809590959B01AC01DF
:10168000BD01CF010895A29FB001B39FC001A39FE8
:10169000700D811D1124911DB29F700D811D1124AB
:1016A000911D0895EE0FFF1F0590F491E02D099410
:0416B000F894FFCFDC
:1016B4000000000029018900B6007601E700C5009A
:1016C400D9000000000053042604A1040304A60268
:1016D400130404040D0A00436F6E6E656374696F2E
:1016E4006E20666F7220796F752120506F67676571
:1016F4007221004E6F20636F6E6E656374696F6E46
:1017040020666F7220796F75203E3A2800496E6911
:101714007469616C697A696E6720746865207365A1
:101724006E736F720054616B696E672076616C75BD
:1017340065732066726F6D207468652073656E73BF
:101744006F722E2E2E004D6F746F723120537065A0
:101754006564203D200020262620004D6F746F72A2
:0C17640032205370656564203D200000B9
:00000001FF
